:1000000010C02BC029C028C027C026C025C035C0BD
:1000100023C022C021C020C01FC01EC01DC01CC0E4
:100020001BC011241FBECFE5D2E0DEBFCDBF10E064
:10003000A0E6B0E0E4E4F1E002C005900D92AA363B
:10004000B107D9F710E0AAE6B0E001C01D92AE36C4
:10005000B107E1F765D074C0D3CF1F920F920FB6EE
:100060000F92112410926C000F900FBE0F901F90F2
:10007000189581E080936C0008951F920F920FB63F
:100080000F9211242F933F938F939F93EF93FF939E
:10009000809160009091610001969093610080933F
:1000A000600020916A0030916B008217930720F165
:1000B000F89480916C00E0916D00882341F081E01C
:1000C0008E0F80936D00F0E0EE59FF4F07C081E086
:1000D0008E0F80936D00F0E0EA59FF4F808188BB5E
:1000E00080916D00843010F010926D0010926100CC
:1000F0001092600012BE7894FF91EF919F918F91C2
:100100003F912F910F900FBE0F901F9018958FE089
:1001100087BB18BA089580EC8BBF8AE085BF08952D
:10012000F6DFF9DF10926D008AE090E090936B00AB
:1001300080936A0010926C0081E080936D00FDCF87
:04014000F894FFCF61
:0A0144000100080402010102040892
:00000001FF
